:100000000C9432250C9461250C9461250C94612587
:100010000C9461250C9461250C9461250C94612548
:100020000C9461250C9461250C9461250C94612538
:100030000C9461250C94294A0C9461250C9461253B
:100040000C9461250C9461250C9461250C94612518
:100050000C9461250C9461250C9461250C94612508
:100060000C9461250C9497D20C9461250C94C3D206
:100070000C9461250C94FF9D0C9461250C946125D2
:100080000C9461250C9461250C9461250C946125D8
:100090000C9461250C9461250C9461250C946125C8
:1000A0000C9461250C9461250C9461250C946125B8
:1000B0000C9461250C9461250C9461250C94AE4739
:1000C0000C9461250C9461250C9461250C94612598
:1000D0000C9461250C9461250C9461250C94612588
:1000E0000C9461250F4037403C40194041405F402F
:1000F00092401940634092406840704075407A4099
:100100004B405040554019405A40924014404640A0
:100110007F4084408840924092408C40507265708D
:100120006172696E6720666F7220736C6565703AE4
:1001300049276D20636F6D706C6574696E6720610F
:100140006E792020717565756564206D6F766573B5
:100150002E004368616E67696E672046696C616D49
:10016000656E743A202049276D20636F6D706C6551
:1001700074696E6720616E7920207175657565649C
:10018000206D6F7665732E00494E56414C494420D0
:10019000544F4F4C3A2020202020202049207265C7
:1001A0006365697665642061204C65667420202053
:1001B000546F6F6C20636F6D616E642C2062757478
:1001C000204920206F6E6C792068617665206F6E03
:1001D0006520546F6F6C2E00494E56414C494420A7
:1001E000434F4D4D414E443A202020204920726516
:1001F000636569766564206120636F6D6D616E640F
:10020000666F7220612068656174656420706C613E
:1002100074652C20627574204920646F6E277420E9
:1002200068617665206F6E65004920736177206193
:1002300020676C6974636820696E206D795344206F
:10024000636172642E204966207468697320697343
:1002500020746865206669727374206572726F72AB
:100260002C2074727974686973206D6F64656C20DA
:10027000616761696E2E20202000492074696D65D8
:1002800064206F7574207768696C65202020617424
:1002900074656D7074696E6720746F206865617431
:1002A00020206D792065787472756465722E00491E
:1002B0002074696D6564206F7574207768696C655A
:1002C000202020617474656D7074696E6720746F8E
:1002D000206865617420206D7920706C6174666F90
:1002E000726D2E00507265706172696E6720666F64
:1002F0007220736C6565703A49276D20636F6F6C6F
:10030000696E67206D792020202020206865617447
:1003100065727320616E6420676F696E6720746F09
:100320006D79207761697420706F736974696F6E7D
:100330002E004368616E67696E672046696C616D67
:10034000656E743A202049276D20676F696E6720BB
:10035000746F206D792077616974706F7369746947
:100360006F6E2E0052657374617274696E672074CB
:100370006865204275696C6400546869732069730C
:10038000206E6F74207468652078336720766572FC
:1003900073696F6E204920776F726B20626573748A
:1003A00020776974682E20466F722068656C702013
:1003B0007365653A206D616B6572626F742E636F51
:1003C0006D2F68656C70202020004920616D2061D0
:1003D000205265706C696361746F7220322E5468AC
:1003E0006973206275696C6420697320666F72207E
:1003F0002020616E6F7468657220626F742E2053C6
:1004000065653A2020206D616B6572626F742E63A2
:100410006F6D2F68656C7000546865205265706C54
:100420006963617430720049276D2043616E6365B2
:100430006C6C696E672E2020202020506C656173E3
:100440006520576169742E002000486561746572EB
:10045000732073687574646F776E20202020647534
:100460006520746F20696E616374697669747920A0
:100470002020004578747275646572204F7665722D
:1004800068656174212020536F66747761726520FE
:1004900054656D70204C696D6974205265616368A4
:1004A00065642120506C65617365202020202053F5
:1004B000687574646F776E206F7220526573746113
:1004C00072740048656174696E67204661696C7575
:1004D000726521202020204D792065787472756422
:1004E00065727320617265206E6F746865617469EE
:1004F0006E672070726F7065726C792E20202043B9
:100500006865636B206D7920636F6E6E65637469D7
:100510006F6E730048656174696E67204661696C2F
:1005200075726521202020204D79206578747275C0
:100530006465727320617265202020206C6F73697E
:100540006E672074656D70657261747572652E20BA
:10055000436865636B206D7920636F6E6E656374AD
:10056000696F6E7300486561746572204572726FC1
:1005700072212020202020202049276D20726561D3
:1005800064696E67206F7574206F66202072616EDB
:1005900067652074656D7065726174757265732E20
:1005A00020436865636B206D7920636F6E6E6563B1
:1005B00074696F6E7300486561746572204572726C
:1005C0006F7221202020202020204D792074656D1D
:1005D00070657261747572652072656164736172B1
:1005E00065206661696C696E672120506C65617376
:1005F0006520436865636B206D7920636F6E6E655F
:100600006374696F6E73009302690000006900EE05
:10061000016900000069002601B801000000002007
:10062000065500000055002D085500000055004DEE
:100630000A550000005500400CAB000000AB002D37
:10064000095500000055002D085500000055004DCB
:100650000AAB000000550000000001C00D5500006D
:100660000055002D08560100000000C00D20015368
:1006700011BC005B12B10100000000C00DC80000F9
:10068000001400C00DC80000001400910E9001007D
:100690000014005A10900100001400C00D20030047
:1006A000000000C805C80000001400C805C800000C
:1006B000001400C805C80000001400DD04B00400E8
:1006C0000014007505C800000014007505C800007E
:1006D0000014007505C800000014009704B0040061
:1006E000000000B807550000005500B909AB000034
:1006F00000AB007D06550000005500C80555000000
:10070000005500B807AB000000AB00C8055500005D
:10071000005500DD04550000005500C805550000D7
:10072000005500B8075500000055007D0656010031
:100730000000003F03550000005500FA0C55000072
:100740000055003F03550000005500B90955000051
:100750000055003F035500000055002D09550000CD
:100760000055003F03550000005500EA0A550000FF
:100770000055003F03550000005500B909AB0000CB
:100780000000008D49576DA3DA1A8BC467089A667A
:100790000F0D43C2B35AA19DF32591440892E2A5DF
:1007A000C3DBE7180322F8FEA0CA3563FE0604295E
:1007B000E52D365CFA574026328C86B603F672FB7E
:1007C000C550A5D9A023ACF5D8119D120B071D6B00
:1007D00087FFB952EB174F4795931E4185DDDC66C5
:1007E0008BC453C28137E2059F6BECC6F936F52AFC
:1007F000721B93F43DF21F4B9E79AAC1E1F11ADFFF
:1008000029CBB24DED1498F7344BB01C37EAB948F8
:100810003FF75A18E824E8B195F3AB81F939A6649B
:1008200001E45D2CD2CC71B7552E479AF625EE9493
:10083000AB517C61B658706F698A4E65BC3D1B6DCB
:10084000C8396E0ADF742F16FB4F836789151300B2
:100850007FC98A1E079C6A28BAE3521032FD112014
:1008600087607E8955E42CC68E23D464BB78DEFC79
:100870006FD148C069AF9909E63AC370D69B7B2B0C
:100880005B4DF8FF7CA3BF0FBB45448634B00E4AD6
:10089000FA435628D282947A3CCFC00C0583ACAE82
:1008A000D3543BEBF0D59B92BD8598B18059999676
:1008B000BEBF78EA65A756217D68A98FCD3F8FD04E
:1008C0008CA876CFAD6219AEFD0DB5AD045B7DE1B0
:1008D0002EBA1C5F908E3BB5007EE9A8F4609E5C4A
:1008E0003597D4597BC8DCD3F2400A09DDCCEF330D
:1008F000BE5ED726CE3E33762230A9A238965475F6
:10090000CB14CEA1683A84EC3CEDD56CDAD8DBB2DE
:1009100031A2620BB76CD76EE0F0A77101CD53D056
:100920003ED127635FAF8D74C5E3915DEE7F0C8888
:10093000132D2F9F61E088B49727EFE5BD73D68014
:100940004579B8E642BCF1020E2B77CA1731A415DF
:100950004684B330101D9C504621AA7A1F4AE949AB
:10096000191224E7A4735E824CB8C12A20B46A4EDF
:10097000D977DE065175C758C9FC4CA64190420292
:100980003816C7534420436172642052656D6F76F8
:1009900065640024F404D9201BC40C5C0E9804C4C4
:1009A000095F0265077101F405F900FB04B3004813
:1009B000048700C10369005803550003034500BEC6
:1009C000023A008402310053022A00290225000461
:1009D000022000E4011C00C8011900AF01170098B3
:1009E0000114008401130071011000610110005115
:1009F000010E0043010D0036010B002B010B0020FE
:100A0000010B00150109000C01090003010800FB9E
:100A1000000800F3000800EB000700E4000600DE19
:100A2000000600D8000600D2000600CC000500C772
:100A3000000500C2000500BD000400B9000400B5B7
:100A4000000400B1000400AD000400A9000400A5EA
:100A5000000300A20003009F0004009B0003009815
:100A60000003009500020093000300900003008D36
:100A70000002008B00030088000200860002008450
:100A8000000300810002007F0002007D0002007B65
:100A90000002007900020077000100760002007475
:100AA00000020072000100710002006F0002006D80
:100AB0000001006C0002006A00010069000200678A
:100AC0000001006600010065000100640002006290
:100AD00000010061000100600001005F0002005D94
:100AE0000001005C0001005B0001005A0001005998
:100AF0000001005800010057000100560001005598
:100B00000001005400010053000000530001005296
:100B100000010051000100500001004F0001004E93
:100B20000000004E0001004D0001004C0001004B90
:100B30000000004B0001004A00010049000100488C
:100B40000000004800010047000100460000004688
:100B50000001004500000045000100440001004381
:100B6000000000430001004200000042000100417B
:100B700000000041000100400001003F0000003F74
:100B80000001003E0000003E0001003D0000003D6D
:100B90000001003C0000003C0000003C0001003B64
:100BA0000000003B0001003A0000003A000100395B
:100BB0000000003900010038000000380000003853
:100BC0000001003700000037000100360000003649
:100BD000000000360001003500000035000000353F
:100BE0000001003400000034000000340001003334
:100BF000000000330000003300010032000000322A
:100C0000000000320001003100000031000000311E
:100C10000001003000000030000000300001002F13
:100C20000000002F0000002F0000002F0001002E08
:100C30000000002E0000002E0001002D0000002DFD
:100C40000000002D0000002D0001002C0000002CF1
:100C50000000002C0000002C0001002B0000002BE5
:100C60000000002B0000002B0001002A0000002AD9
:100C70000000002A0000002A0001002900000029CD
:100C800000000029000000290000002900010028C0
:100C900000000028000000280000002800000028B4
:100CA00000010027000000270000002700000027A7
:100CB000000000270001002600000026000000269A
:100CC000000000260000002600010025000000258D
:100CD0000000002500000025000000250000002580
:100CE0000001002400000024000000240000002473
:100CF0000000002400010023000000230000002366
:100D00000000002300000023000000230000002357
:100D1000000100220000002200000022000000224A
:100D2000000000220000002200010021000000213C
:100D3000000000210000002100000021000000212F
:100D40000000002100010020000000200000002021
:100D50000000002000000020000000200000002013
:100D6000000000200001001F0000001F0000001F05
:100D70000000001F0000001F0000001F0000001FF7
:100D80000001001E0000001E0000001E0000001EEA
:100D900000000024F4D43050C38E20C2A240178239
:100DA0008B7011127A910D816CD90AA861E108C784
:100DB000586607615143061E4B5D05C145A7041ADD
:100DC000411104093D9803713931034036DB026556
:100DD000339102D4305402802E1D02632CEE017533
:100DE0002AC501B028A001102781018F2564012B9D
:100DF000244B01E0223401AC211F018D200D018024
:100E00001FFC00841EED00971DDF00B81CD200E619
:100E10001BC600201BBC00641AB200B219A8000A4D
:100E200019A0006A189900D117910040178B00B5DE
:100E300016840031167E00B31579003A157300C789
:100E4000146F0058146A00EE1366008813630025BF
:100E5000135E00C7125B006C12570015125400C1DC
:100E600011510070114F0021114B00D61049008D17
:100E70001047004610440002104200C00F4000809E
:100E80000F3E00420F3C00060F3B00CB0E38009394
:100E90000E37005C0E3500270E3400F30D3200C112
:100EA0000D3100900D3000600D2E00320D2D00052B
:100EB0000D2C00D90C2B00AE0C2900850C29005CF0
:100EC0000C2700350C27000E0C2600E80B2400C46C
:100ED0000B2400A00B23007D0B23005A0B210039AB
:100EE0000B2100180B2000F80A1F00D90A1E00BBB6
:100EF0000A1E009D0A1D00800A1D00630A1C00478F
:100F00000A1B002C0A1B00110A1A00F7091A00DD3F
:100F1000091900C4091900AB091900920917007BCF
:100F2000091800630917004C09160036091600203D
:100F30000916000A091500F5081500E0081400CC90
:100F4000081400B8081400A4081400900813007DC9
:100F50000812006B081300580812004608120034EB
:100F6000081100230811001208110001081100F0F7
:100F7000071000E0071000D0071000C0071000B0F5
:100F8000070F00A107100091070E0083070F0074E0
:100F9000070F0065070E0057070E0049070E003BBC
:100FA000070D002E070E0020070D0013070D000689
:100FB000070D00F9060C00ED060D00E0060C00D44C
:100FC000060C00C8060C00BC060C00B0060C00A401
:100FD000060B0099060C008D060B0082060B0077AD
:100FE000060B006C060B0061060A0057060B004C4E
:100FF000060A0042060A0038060A002E060A0024E5
:10100000060A001A060A001006090007060A00FD73
:10101000050900F4050900EB050900E2050900D9FE
:10102000050900D0050900C7050900BE050900B57E
:10103000050800AD050800A50509009C05080094F9
:101040000508008C050800840508007C050800746C
:101050000508006C050700650508005D05070056DA
:101060000508004E05070047050700400508003841
:10107000050700310507002A050700230507001CA6
:10108000050600160507000F050700080506000203
:10109000050700FB040600F5040700EE040600E85F
:1010A000040600E2040700DB040600D5040600CFB6
:1010B000040600C9040600C3040600BD040600B708
:1010C000040600B1040500AC040600A6040600A056
:1010D0000405009B04060095040500900406008AA0
:1010E00004050085040500800406007A04050075E7
:1010F000040500700405006B04050066040500612A
:101100000405005C04050057040500520405004D69
:1011100004050048040500430405003E0404003AA9
:1011200004050035040500300404002C04050027E4
:10113000040400230405001E0404001A040400161D
:10114000040500110404000D040400090405000452
:1011500004040000040400FC030400F8030400F489
:10116000030400F0030400EC030400E8030400E4BB
:10117000030400E0030400DC030400D8030400D4EB
:10118000030400D0030400CC030400C8030300C51B
:101190000303009502000000506C656173652077C1
:1011A0006169742E2E2E00840369010000140083EF
:1011B000048800000014008C000000000000000003
:1011C00030F8FFFF00000000000000008E0000006B
:1011D000000000000000000000000000000000000F
:1011E0000057290400188304DC0500001400901F38
:1011F000891F95000000005469676874656E20655A
:10120000616368206F6620746865200095010000A6
:10121000007468726565206B6E6F627320756E6412
:10122000657220202000950100000074686520622E
:1012300075696C6420706C6174666F726D2020003B
:10124000950700000061626F757420666F757220EB
:101250007475726E732E00950000000049276D2092
:10126000676F696E6720746F206D6F7665206D798A
:1012700000950100000065787472756465722061E4
:10128000726F756E6420746F20200095010000005D
:10129000646966666572656E7420706F696E7473DA
:1012A00020736F20009507000000796F752063613F
:1012B0006E20636865636B2E2E2E00950000000083
:1012C000746865206865696768742E2041742065BC
:1012D00061636820009501000000706F696E742CD6
:1012E000206C6F6F73656E207468652020200095F8
:1012F00001000000737065636966696564206B6E48
:101300006F6220756E74696C009507000000746848
:1013100065206E6F7A7A6C6520616C6D6F73742EC8
:101320002E2E009500000000746F756368657320B1
:10133000746865206275696C642020200095010046
:101340000000706C6174652E20546865206E6F7AA1
:101350007A6C652069730095010000006174207447
:1013600068652072696768742068656967687420B9
:101370000095070000007768656E20612074686939
:101380006E2070696563652E2E2E009500000000AA
:101390006F662070617065722077696C6C20736C69
:1013A00069646520009501000000626574776565D9
:1013B0006E20746865206E6F7A7A6C6520200095C7
:1013C00001000000616E64206275696C6420706CBD
:1013D0006174652077697468009507000000736F79
:1013E0006D65206672696374696F6E2E00950200E8
:1013F0000000506C65617365207761697400840337
:101400007D010000140083048800000014008C009B
:101410000000000000000030F8FFFF0000000000A6
:101420000000008E0000000000000000000000002E
:10143000000000000000000057290400188304DCAD
:1014400005000014008C97340000F3190000000020
:10145000000000000000000000008E0000000038C6
:101460001800000000000000000000000000006CF8
:10147000692E0018950000000041646A757374209D
:101480007468652072656172206B6E6F62009501F1
:10149000000000756E74696C207061706572206A5E
:1014A00075737420202020009501000000736C6982
:1014B000646573206265747765656E207468652065
:1014C000200095070000006E6F7A7A6C6520616ECF
:1014D0006420706C617465009502000000506C65BA
:1014E0006173652077616974008E00000000381810
:1014F0000000D00700000000000000000000E093A2
:101500000400188E9C100000C8E7FFFFD007000001
:101510000000000000000000802A2D00188E9B10A3
:101520000000C8E7FFFF000000000000000000000E
:101530000000E093040018950000000041646A7503
:1015400073742066726F6E742072696768742020ED
:101550000095010000006B6E6F6220756E74696CFF
:10156000207061706572202020200095010000002D
:101570006A75737420736C6964657320626574772F
:1015800065656E200095070000006E6F7A7A6C65C5
:1015900020616E6420706C6174650095020000002B
:1015A000506C656173652077616974008E9C1000D2
:1015B00000C8E7FFFFD007000000000000000000A7
:1015C00000E0930400188E64EFFFFFC8E7FFFFD030
:1015D0000700000000000000000000004C1D001883
:1015E0008E65EFFFFFC8E7FFFF000000000000006E
:1015F0000000000000E09304001895000000004186
:10160000646A7573742066726F6E74206C6566749C
:101610002020200095010000006B6E6F6220756E27
:1016200074696C2070617065722020202000950123
:101630000000006A75737420736C696465732062BE
:1016400065747765656E200095070000006E6F7AFF
:101650007A6C6520616E6420706C6174650095021F
:10166000000000506C656173652077616974008EBD
:1016700064EFFFFFC8E7FFFFD00700000000000095
:1016800000000000E09304001895000000004E6F79
:10169000772049276D20676F696E6720746F20205F
:1016A000202000950100000073656E64206D792094
:1016B000657874727564657220746F2000950100FE
:1016C0000000616C6C20746872656520636F726ED7
:1016D0006572732020200095070000006167616932
:1016E0006E20746F207265636865636B2E009502CF
:1016F000000000506C656173652077616974008E2D
:101700000000000038180000D007000000000000B2
:101710000000000080191B00188E0000000038181F
:101720000000000000000000000000000000E09346
:10173000040018950000000041646A7573742074F9
:1017400068652072656172202020202000950100CC
:1017500000006B6E6F6220756E74696C2070617032
:101760006572202020200095010000006A757374C6
:1017700020736C69646573206265747765656E209B
:101780000095070000006E6F7A7A6C6520616E64C8
:1017900020706C617465009502000000506C6561FA
:1017A00073652077616974008E00000000381800AE
:1017B00000D00700000000000000000000E09304DB
:1017C00000188E402B0000C8E7FFFFD00700000084
:1017D00000000000000000A65D2200188E3F2B00D4
:1017E00000C8E7FFFF00000000000000000000004C
:1017F00000E093040018950000000041646A7573CE
:10180000742066726F6E742072696768742020009D
:1018100095010000006B6E6F6220756E74696C201C
:101820007061706572202020200095010000006A20
:1018300075737420736C6964657320626574776571
:10184000656E200095070000006E6F7A7A6C652047
:10185000616E6420706C6174650095020000005038
:101860006C656173652077616974008E402B0000A0
:10187000C8E7FFFFD00700000000000000000000E4
:10188000E0930400188EC0D4FFFFC7E7FFFFD00726
:1018900000000000000000000000C0C62D00188EEF
:1018A000C1D4FFFFC8E7FFFF0000000000000000F8
:1018B00000000000E093040018950000000041645F
:1018C0006A7573742066726F6E74206C656674201E
:1018D00020200095010000006B6E6F6220756E7411
:1018E000696C2070617065722020202000950100D5
:1018F00000006A75737420736C6964657320626597
:10190000747765656E200095070000006E6F7A7A27
:101910006C6520616E6420706C61746500950200D6
:101920000000506C656173652077616974008EC03A
:10193000D4FFFFC8E7FFFFD0070000000000000051
:10194000000000E0930400188E000000000000007A
:1019500000D00700000000000000000000913B1ACA
:1019600000188E00000000000000000000000000D1
:1019700000000000000000E0930400189500000043
:10198000004E6F77206C6574277320747269706CD9
:101990006520202020009501000000636865636BCE
:1019A0002D2D2070617065722073686F756C6400F6
:1019B00095010000006A75737420736C696465207A
:1019C0006265747765656E20200095070000006EE3
:1019D0006F7A7A6C6520616E6420706C617465004A
:1019E000891F95000000005469676874656E206562
:1019F000616368206F6620746865200095010000AF
:101A0000007468726565206B6E6F627320756E641A
:101A10006572202020009501000000746865206236
:101A200075696C6420706C6174666F726D20200043
:101A3000950700000061626F757420666F757220F3
:101A40007475726E732E00950000000049276D209A
:101A5000676F696E6720746F206D6F7665206D7992
:101A600000950100000065787472756465722061EC
:101A7000726F756E6420746F202000950100000065
:101A8000646966666572656E7420706F696E7473E2
:101A900020736F20009507000000796F7520636147
:101AA0006E20636865636B2E2E2E0095000000008B
:101AB000746865206865696768742E2041742065C4
:101AC00061636820009501000000706F696E742CDE
:101AD000206C6F6F73656E20746865202020009500
:101AE00001000000737065636966696564206B6E50
:101AF0006F6220756E74696C009507000000746851
:101B000065206E6F7A7A6C6520616C6D6F73742ED0
:101B10002E2E009500000000746F756368657320B9
:101B2000746865206275696C64202020009501004E
:101B30000000706C6174652E20546865206E6F7AA9
:101B40007A6C65206973009501000000617420744F
:101B500068652072696768742068656967687420C1
:101B60000095070000007768656E20612074686941
:101B70006E2070696563652E2E2E009500000000B2
:101B80006F662070617065722077696C6C20736C71
:101B900069646520009501000000626574776565E1
:101BA0006E20746865206E6F7A7A6C6520200095CF
:101BB00001000000616E64206275696C6420706CC5
:101BC0006174652077697468009507000000736F81
:101BD0006D65206672696374696F6E2E00950200F0
:101BE0000000506C6561736520776169740084033F
:101BF0007D010000140083048800000014008C00A4
:101C00000000000000000030F8FFFF0000000000AE
:101C10000000008E00000000000000000000000036
:101C2000000000000000000057290400188304DCB5
:101C300005000014008C97340000F3190000000028
:101C4000000000000000000000008EB60500003813
:101C50001800000000000000000000000000002448
:101C600061290018950000000041646A75737420B2
:101C70007468652072656172206B6E6F62009501F9
:101C8000000000756E74696C207061706572206A66
:101C900075737420202020009501000000736C698A
:101CA000646573206265747765656E20746865206D
:101CB000200095070000006E6F7A7A6C6520616ED7
:101CC0006420706C617465009502000000506C65C2
:101CD0006173652077616974008EB505000038185E
:101CE0000000D00700000000000000000000E093AA
:101CF0000400188E51160000C8E7FFFFD00700004F
:101D00000000000000000000802A2D00188E5116EF
:101D10000000C8E7FFFF0000000000000000000016
:101D20000000E093040018950000000041646A750B
:101D300073742066726F6E742072696768742020F5
:101D40000095010000006B6E6F6220756E74696C07
:101D50002070617065722020202000950100000035
:101D60006A75737420736C69646573206265747737
:101D700065656E200095070000006E6F7A7A6C65CD
:101D800020616E6420706C61746500950200000033
:101D9000506C656173652077616974008E5116001F
:101DA00000C8E7FFFFD007000000000000000000AF
:101DB00000E0930400188E69F4FFFFC8E7FFFFD02E
:101DC00007000000000000000000003FE81D0018B0
:101DD0008E69F4FFFFC8E7FFFF000000000000006D
:101DE0000000000000E0930400189500000000418E
:101DF000646A7573742066726F6E74206C656674A5
:101E00002020200095010000006B6E6F6220756E2F
:101E100074696C207061706572202020200095012B
:101E20000000006A75737420736C696465732062C6
:101E300065747765656E200095070000006E6F7A07
:101E40007A6C6520616E6420706C61746500950227
:101E5000000000506C656173652077616974008EC5
:101E600069F4FFFFC8E7FFFFD00700000000000093
:101E700000000000E09304001895000000004E6F81
:101E8000772049276D20676F696E6720746F202067
:101E9000202000950100000073656E64206D79209C
:101EA000657874727564657220746F200095010006
:101EB0000000616C6C20746872656520706F696EDB
:101EC000747320202020009507000000616761697D
:101ED0006E20746F207265636865636B2E009502D7
:101EE000000000506C656173652077616974008E35
:101EF000B505000038180000D00700000000000001
:101F00000000000078381B00188EB6050000381855
:101F10000000000000000000000000000000E0934E
:101F2000040018950000000041646A757374207401
:101F300068652072656172202020202000950100D4
:101F400000006B6E6F6220756E74696C207061703A
:101F50006572202020200095010000006A757374CE
:101F600020736C69646573206265747765656E20A3
:101F70000095070000006E6F7A7A6C6520616E64D0
:101F800020706C617465009502000000506C656102
:101F900073652077616974008EB5050000381800FC
:101FA00000D00700000000000000000000E09304E3
:101FB00000188E2C290000C8E7FFFFD007000000A2
:101FC000000000000000005AC51F00188E2C2900D8
:101FD00000C8E7FFFF000000000000000000000054
:101FE00000E093040018950000000041646A7573D6
:101FF000742066726F6E74207269676874202000A6
:1020000095010000006B6E6F6220756E74696C2024
:102010007061706572202020200095010000006A28
:1020200075737420736C6964657320626574776579
:10203000656E200095070000006E6F7A7A6C65204F
:10204000616E6420706C6174650095020000005040
:102050006C656173652077616974008E2D290000BD
:10206000C8E7FFFFD00700000000000000000000EC
:10207000E0930400188E12E2FFFFC8E7FFFFD007CD
:1020800000000000000000000000D0A02500188E15
:1020900012E2FFFFC7E7FFFF0000000000000000A2
:1020A00000000000E0930400189500000000416467
:1020B0006A7573742066726F6E74206C6566742026
:1020C00020200095010000006B6E6F6220756E7419
:1020D000696C2070617065722020202000950100DD
:1020E00000006A75737420736C696465732062659F
:1020F000747765656E200095070000006E6F7A7A30
:102100006C6520616E6420706C61746500950200DE
:102110000000506C656173652077616974008E13EF
:10212000E2FFFFC8E7FFFFD007000000000000004B
:10213000000000E0930400188EB5050000000000C8
:1021400000D0070000000000000000000095CD1640
:1021500000188EB60500000000000000000000001E
:1021600000000000000000E093040018950000004B
:10217000004E6F77206C6574277320747269706CE1
:102180006520202020009501000000636865636BD6
:102190002D2D2070617065722073686F756C6400FE
:1021A00095010000006A75737420736C6964652082
:1021B0006265747765656E20200095070000006EEB
:1021C0006F7A7A6C6520616E6420706C6174650052
:1021D000891F990000000052657047204275696CA4
:1021E00064009600FF8600860088001F026E00884B
:1021F000011F026E00860088000302DC0086018851
:10220000010302DC0084037D0100001400830488C4
:1022100000000014008C000000000000000030F8F6
:10222000FFFF00000000000000008E000000000022
:102230000000000000000000000000000000005747
:10224000290400188304DC0500001400901F8BC5CE
:10225000D9FFFF65E6FFFF60EA0000000000000014
:1022600000000080000000910014910114910214FC
:102270009103149104148600860087006400FFFF18
:102280008D016400FFFF8601860187016400FFFF66
:102290008D016400FFFF91007F91017F91022891E1
:1022A000037F91047F86008EC4D9FFFF66E6FFFF9F
:1022B000500000000000000000000000033875001E
:1022C00018898888000A010388000401FF8E000035
:1022D00000000000000000000000C0FEFFFF000042
:1022E000000060E316001F8EC8E7FFFF08EBFFFF4A
:1022F000680100005BFFFFFF000000002ED60B000E
:10230000188EC8E7FFFF09EBFFFF68010000E3FF3D
:10231000FFFF000000001C5800001889888EC8E7E5
:10232000FFFF08EBFFFFF0000000EDFFFFFF0000E4
:10233000000000320000188EC8E7FFFF09EBFFFF26
:10234000F0000000E3FFFFFF00000000F22B0000A0
:10235000188EF1D9FFFF08EBFFFFF00000009CFE94
:10236000FFFF00000000862F3000188EC8E7FFFF37
:1023700087EEFFFFF00000003000000000000000CA
:1023800012720B00188EC8E7FFFF87EEFFFFF00008
:102390000000E3FFFFFF00000000F12B0000188E9B
:1023A00066DDFFFF87EEFFFFF00000009CFEFFFFF1
:1023B00000000000A5232400188EC8E7FFFF06F2E6
:1023C000FFFFF0000000300000000000000031C8F6
:1023D0000800188EC8E7FFFF06F2FFFFF0000000BC
:1023E000E3FFFFFF00000000F12B0000188E67DD07
:1023F000FFFF05F2FFFFF00000009CFEFFFF000062
:102400000000A5232400188EC8E7FFFF84F5FFFF16
:10241000F0000000300000000000000031C808009B
:10242000188EC8E7FFFF85F5FFFFF0000000E3FF0F
:10243000FFFF00000000F22B0000188E66DDFFFF9A
:1024400084F5FFFFF00000009CFEFFFF000000008D
:10245000A5232400188EC8E7FFFF03F9FFFFF00053
:102460000000300000000000000031C80800188E95
:10247000C8E7FFFF03F9FFFFF0000000E3FFFFFFE5
:1024800000000000F22B0000188E67DDFFFF02F94C
:10249000FFFFF00000009CFEFFFF00000000A523EE
:1024A0002400188EC8E7FFFF82FCFFFFF000000049
:1024B000300000000000000031C80800188EC7E797
:1024C000FFFF81FCFFFFF0000000E3FFFFFF0000C3
:1024D0000000F22B0000188E67DDFFFF82FCFFFF7B
:1024E000F00000009CFEFFFF00000000A523240078
:1024F000188EC8E7FFFF00000000F0000000300069
:1025000000000000000031C80800188EC8E7FFFF77
:1025100000000000F0000000E3FFFFFF00000000EB
:10252000F22B0000188E67DDFFFF00000000F000B6
:1025300000009CFEFFFF00000000A5232400188E71
:10254000C7E7FFFF7E030000F0000000300000003E
:102550000000000031C80800188EC8E7FFFF7F03A5
:102560000000F0000000E3FFFFFF00000000F22B7E
:102570000000188E67DDFFFF7E030000F000000002
:102580009CFEFFFF00000000A5232400188EC8E772
:10259000FFFFFE060000F000000030000000000019
:1025A000000031C80800188EC8E7FFFFFD060000D4
:1025B000F0000000E3FFFFFF00000000F22B00002E
:1025C000188E66DDFFFFFD060000F00000009CFE97
:1025D000FFFF00000000A5232400188EC8E7FFFFBE
:1025E0007C0A0000F0000000300000000000000045
:1025F00031C80800188EC8E7FFFF7B0A0000F00012
:102600000000E3FFFFFF00000000F12B0000188E28
:1026100067DDFFFF7C0A0000F00000009CFEFFFF6A
:1026200000000000A5232400188EC8E7FFFFFB0D63
:102630000000F0000000300000000000000031C881
:102640000800188EC8E7FFFFFA0D0000F000000038
:10265000E3FFFFFF00000000F12B0000188E66DD95
:10266000FFFFFA0D0000F00000009CFEFFFF0000DD
:102670000000A5232400188EC8E7FFFF7911000091
:10268000F0000000300000000000000031C8080029
:10269000188EC8E7FFFF79110000F0000000E3FF8B
:1026A000FFFF00000000F12B0000188E67DDFFFF28
:1026B00079110000F00000009CFEFFFF0000000008
:1026C000A5232400188EC8E7FFFFF8140000F000CF
:1026D0000000300000000000000031C80800188E23
:1026E000C7E7FFFFF7140000F0000000E3FFFFFF63
:1026F00000000000F12B0000188E67DDFFFFF814CA
:102700000000F00000009CFEFFFF00000000A52379
:102710002400188E6AF5FFFF14F9FFFF680100001E
:10272000300000000000000018821D00188E69F5BE
:10273000FFFF15F9FFFFF0000000D0FFFFFF0000D2
:102740000000AE250000188E6AF5FFFF14F9FFFFA8
:10275000F0000000E3FFFFFF00000000F12B00008D
:10276000188E6AF5FFFFEC060000F00000009CFEEA
:10277000FFFF00000000862F3000188EE8F8FFFFF2
:1027800014F9FFFFF000000030000000000000001E
:1027900012720B00188EE8F8FFFF15F9FFFFF0002A
:1027A0000000E3FFFFFF00000000F12B0000188E87
:1027B000E9F8FFFF76030000F00000009CFEFFFF39
:1027C00000000000A5232400188E66FCFFFF14F90A
:1027D000FFFFF0000000300000000000000031C8E2
:1027E0000800188E67FCFFFF15F9FFFFF0000000DE
:1027F000E3FFFFFF00000000F12B0000188E67FCD4
:10280000FFFF75030000F00000009CFEFFFF0000CA
:102810000000A5232400188EE5FFFFFF15F9FFFF38
:10282000F0000000300000000000000031C8080087
:10283000188EE6FFFFFF14F9FFFFF0000000E3FF32
:10284000FFFF00000000F12B0000188EE5FFFFFFE6
:1028500076030000F00000009CFEFFFF0000000077
:10286000A5232400188E6403000015F9FFFFF00073
:102870000000300000000000000031C80800188E81
:102880006403000014F9FFFFF0000000E3FFFFFF06
:1028900000000000F12B0000188E64030000760396
:1028A0000000F00000009CFEFFFF00000000A523D8
:1028B0002400188EE306000015F9FFFFF000000069
:1028C000300000000000000031C80800188EE30648
:1028D000000014F9FFFFF0000000E3FFFFFF00001D
:1028E0000000F12B0000188EE206000076030000C5
:1028F000F00000009CFEFFFF00000000A523240064
:10290000188E610A000014F9FFFFF000000030008B
:1029100000000000000031C80800188E620A0000A4
:1029200015F9FFFFF0000000E3FFFFFF00000000CB
:10293000F12B0000188E610A000076030000F00001
:1029400000009CFEFFFF00000000A5232400188E5D
:10295000E00D000014F9FFFFF0000000300000005F
:102960000000000031C80800188EDF0D000015F9C6
:10297000FFFFF0000000E3FFFFFF00000000F12B6D
:102980000000188EE00D000075030000F00000004C
:102990009CFEFFFF00000000A5232400188E5E119E
:1029A000000015F9FFFFF0000000300000000000FB
:1029B000000031C80800188E5F11000014F9FFFFF5
:1029C000F0000000E4FFFFFF00000000F12B00001A
:1029D000188E5E11000076030000F00000009BFEE0
:1029E000FFFF00000000A5232400188EDD14000066
:1029F00015F9FFFFF00000003000000000000000AB
:102A000031C80800188EDD14000014F9FFFFF00033
:102A10000000E4FFFFFF00000000F12B0000188E13
:102A2000DD14000076030000F00000009BFEFFFFB5
:102A300000000000A5232400188E5C18000015F982
:102A4000FFFFF0000000300000000000000031C86F
:102A50000800188E5B18000014F9FFFFF00000005A
:102A6000E4FFFFFF00000000F12B0000188E5C184F
:102A7000000076030000F00000009BFEFFFF000056
:102A80000000A5232400188EDA1B000014F9FFFFB4
:102A9000F0000000310000000000000031C8080014
:102AA000188EDA1B000015F9FFFFF0000000E3FFAD
:102AB000FFFF00000000F12B0000188EDA1B000061
:102AC00076030000F00000009BFEFFFF0000000006
:102AD000A5232400188E591F000014F9FFFFF000F1
:102AE0000000310000000000000031C80800188E0E
:102AF000591F000015F9FFFFF0000000E3FFFFFF82
:102B000000000000F12B0000188E581F0000750314
:102B10000000F00000009BFEFFFF00000000A52366
:102B20002400188E591F000076030000F0000000FA
:102B30003100000000000000D992000018890886CA
:102B40000189188C591F000076030000F000000076
:102B500099220000000000008EC8E7FFFF3EEBFF57
:102B6000FF680100000000000000000000A89A308B
:102B700000188EC8E7FFFF3DEBFFFF680100000073
:102B8000000000E3FFFFFF1C5800001889908EC86A
:102B9000E7FFFF3EEBFFFFF000000000000000ED4C
:102BA000FFFFFF00320000188EC8E7FFFF3EEBFF7B
:102BB000FFF000000000000000E3FFFFFFF22B0029
:102BC00000188E29F2FFFF3DEBFFFFF00000000030
:102BD0000000009CFEFFFFA5232400188EC8E7FF1D
:102BE000FFB4EEFFFFF00000000000000030000026
:102BF00000EFC50800188EC7E7FFFFB3EEFFFFF038
:102C000000000000000000E3FFFFFFF12B000018B0
:102C10008E2AF2FFFFB3EEFFFFF00000000000007D
:102C2000009CFEFFFFA5232400188EC7E7FFFF29A5
:102C3000F2FFFFF00000000000000030000000EF95
:102C4000C50800188EC8E7FFFF29F2FFFFF000005B
:102C50000000000000E3FFFFFFF12B0000188E29A9
:102C6000F2FFFF29F2FFFFF0000000000000009CCF
:102C7000FEFFFFA5232400188EC8E7FFFF9FF5FF86
:102C8000FFF00000000000000030000000EFC50869
:102C900000188EC8E7FFFF9FF5FFFFF0000000005F
:102CA000000000E3FFFFFFF22B0000188E29F2FF67
:102CB000FF9FF5FFFFF0000000000000009CFEFFFA
:102CC000FFA5232400188EC8E7FFFF14F9FFFFF0CB
:102CD0000000000000000030000000EFC5080018F0
:102CE0008EC8E7FFFF15F9FFFFF0000000000000AD
:102CF00000E3FFFFFFF22B0000188E29F2FFFF1404
:102D0000F9FFFFF0000000000000009CFEFFFFA59F
:102D1000232400188EC8E7FFFF8BFCFFFFF00000A4
:102D2000000000000030000000EFC50800188EC849
:102D3000E7FFFF8AFCFFFFF000000000000000E357
:102D4000FFFFFFF22B0000188E29F2FFFF8AFCFF25
:102D5000FFF0000000000000009CFEFFFFA5232400
:102D600000188EC8E7FFFF00000000F00000000020
:102D700000000030000000EFC50800188EC8E7FF13
:102D8000FF00000000F000000000000000E3FFFF73
:102D9000FFF22B0000188E29F2FFFF00000000F068
:102DA000000000000000009CFEFFFFA52324001887
:102DB0008EC8E7FFFF76030000F00000000000006F
:102DC0000030000000EFC50800188EC7E7FFFF764F
:102DD000030000F000000000000000E3FFFFFFF22E
:102DE0002B0000188E29F2FFFF75030000F0000091
:102DF00000000000009CFEFFFFA5232400188EC8E1
:102E0000E7FFFFEC060000F00000000000000030CB
:102E1000000000EFC50800188EC8E7FFFFEB0600B2
:102E200000F000000000000000E3FFFFFFF22B00B5
:102E300000188E29F2FFFFEC060000F000000000F1
:102E40000000009CFEFFFFA5232400188EC8E7FFAA
:102E5000FF610A0000F000000000000000300000E8
:102E600000EFC50800188EC8E7FFFF610A0000F0F8
:102E700000000000000000E3FFFFFFF12B0000183E
:102E80008E29F2FFFF610A0000F000000000000040
:102E9000009CFEFFFFA5232400188EC8E7FFFFD784
:102EA0000D0000F00000000000000030000000EF06
:102EB000C50800188EC8E7FFFFD70D0000F000001E
:102EC0000000000000E3FFFFFFF12B0000188E2937
:102ED000F2FFFFD70D0000F0000000000000009C92
:102EE000FEFFFFA5232400188EC8E7FFFF4D110049
:102EF00000F00000000000000030000000EFC508F6
:102F000000188EC8E7FFFF4D110000F00000000020
:102F1000000000E3FFFFFFF12B0000188E29F2FFF5
:102F2000FF4C110000F0000000000000009CFEFFBC
:102F3000FFA5232400188EC8E7FFFFC3140000F08C
:102F40000000000000000030000000EFC50800187D
:102F50008EC8E7FFFFC2140000F000000000000070
:102F600000E3FFFFFFF12B0000188E29F2FFFFC2E4
:102F7000140000F0000000000000009CFEFFFFA510
:102F8000232400188E9EF5FFFFB4EEFFFF680100BA
:102F9000000000000030000000BEA41E00188E9F3C
:102FA000F5FFFFB3EEFFFFF000000000000000D0CF
:102FB000FFFFFFAE250000188E9FF5FFFFB3EEFF69
:102FC000FFF000000000000000E3FFFFFFF12B0016
:102FD00000188E9FF5FFFF15F9FFFFF000000000BD
:102FE0000000009CFEFFFFA5232400188E14F9FFAB
:102FF000FFB3EEFFFFF00000000000000030000013
:1030000000EFC50800188E15F9FFFFB4EEFFFFF0C2
:1030100000000000000000E3FFFFFFF12B0000189C
:103020008E14F9FFFF14F9FFFFF00000000000000C
:10303000009CFEFFFFA5232400188E8BFCFFFFB32E
:10304000EEFFFFF00000000000000030000000EF85
:10305000C50800188E8AFCFFFFB4EEFFFFF00000E9
:103060000000000000E3FFFFFFF12B0000188E8A34
:10307000FCFFFF14F9FFFFF0000000000000009CBF
:10308000FEFFFFA5232400188E00000000B4EEFF11
:10309000FFF00000000000000030000000EFC50855
:1030A00000188E00000000B3EEFFFFF000000000EB
:1030B000000000E3FFFFFFF12B0000188E0000006E
:1030C0000015F9FFFFF0000000000000009CFEFF6B
:1030D000FFA5232400188E76030000B3EEFFFFF057
:1030E0000000000000000030000000EFC5080018DC
:1030F0008E76030000B3EEFFFFF00000000000003A
:1031000000E3FFFFFFF12B0000188E750300001590
:10311000F9FFFFF0000000000000009CFEFFFFA58B
:10312000232400188EEC060000B3EEFFFFF0000031
:10313000000000000030000000EFC50800188EEB12
:10314000060000B3EEFFFFF000000000000000E307
:10315000FFFFFFF12B0000188EEC06000015F9FFB1
:10316000FFF0000000000000009CFEFFFFA52324EC
:1031700000188E610A0000B3EEFFFFF000000000AF
:1031800000000030000000EFC50800188E610A0042
:1031900000B4EEFFFFF000000000000000E3FFFFBE
:1031A000FFF12B0000188E610A000014F9FFFFF0F8
:1031B000000000000000009CFEFFFFA52324001873
:1031C0008ED70D0000B4EEFFFFF0000000000000FD
:1031D0000030000000EFC50800188ED70D0000B3C6
:1031E000EEFFFFF000000000000000E3FFFFFFF132
:1031F0002B0000188ED70D000014F9FFFFF000001F
:1032000000000000009CFEFFFFA5232400188E4D47
:10321000110000B4EEFFFFF00000000000000030DD
:10322000000000EFC50800188E4D110000B3EEFF3E
:10323000FFF000000000000000E4FFFFFFF12B00A2
:1032400000188E4C11000015F9FFFFF0000000007F
:103250000000009BFEFFFFA5232400188EC314006E
:1032600000B3EEFFFFF0000000000000003000009F
:1032700000EFC50800188EC2140000B3EEFFFFF087
:1032800000000000000000E4FFFFFFF12B00001829
:103290008EC214000015F9FFFFF0000000000000CE
:1032A000009BFEFFFFA5232400188E38180000B3F2
:1032B000EEFFFFF00000000000000030000000EF13
:1032C000C50800188E39180000B4EEFFFFF00000AA
:1032D0000000000000E4FFFFFFF12B0000188E3813
:1032E00018000014F9FFFFF0000000000000009B30
:1032F000FEFFFFA5232400188EAE1B0000B3EEFFD7
:10330000FFF00000000000000030000000EFC508E2
:1033100000188EAD1B0000B4EEFFFFF000000000AF
:10332000000000E4FFFFFFF12B0000188EAE1B0031
:103330000014F9FFFFF0000000000000009BFEFFFA
:10334000FFA5232400188E241F0000B4EEFFFFF019
:103350000000000000000031000000EFC508001868
:103360008E231F0000B3EEFFFFF0000000000000FE
:1033700000E3FFFFFFF12B0000188E241F00001553
:10338000F9FFFFF0000000000000009BFEFFFFA51A
:103390002324001889108E241F000014F9FFFF3029
:1033A000F2000000000000000000007CD17800184E
:1033B00088010A010288010401FF891F8600880034
:1033C00003020000860188010302000086008800D5
:1033D0001F02000088011F020000891F5F00F00724
:1033E0000A1200002020205265706C696361746FBE
:1033F00072203220202020200020202D2D2D2D2D48
:103400002D2D2D2D2D2D2D2D2D2020202000496EF0
:103410007465726E616C2052656C65617365202005
:103420002020004669726D7761726520566572735F
:10343000696F6E20352E2000436F6F6C210053742E
:103440006172742050726568656174210052696709
:10345000687420546F6F6C004E4120004F4E200066
:103460004F4646004578747275646572004C656617
:103470007420546F6F6C00506C6174666F726D00D5
:1034800057656C636F6D652120202020202020204F
:103490002020202049276D205265706C696361747B
:1034A0006F7220322E202020507265737320746852
:1034B0006520726564204D20746F2020676574203C
:1034C00073746172746564212020202020202020E4
:1034D000004120626C696E6B696E6720274D272062
:1034E0006D65616E7349276D2077616974696E67D8
:1034F00020616E642077696C6C636F6E74696E75A1
:1035000065207768656E20796F7520202070726560
:1035100073732074686520627574746F6E2E2E2E1E
:1035200020004120736F6C696420274D27206D6552
:10353000616E7320202049276D20776F726B696E52
:103540006720616E642077696C6C75706461746566
:10355000206D792073746174757320202020776842
:10356000656E2049276D2066696E69736865642EF3
:103570002E2E004F7572206E6578742073746570FE
:10358000732077696C6C20676574206D65207365A6
:1035900074207570212020202020204669727374C9
:1035A0002C207765276C6C20726573746F72656D63
:1035B00079206275696C6420706C6174666F726DDD
:1035C0002E2E2E00736F2069742773206E69636539
:1035D00020616E64202020206C6576656C2E204969
:1035E0007427732070726F6261626C796120626906
:1035F00074206F66662066726F6D20202020202068
:103600007368697070696E672E2E2E20202020202E
:103610002020202000416161682C207468617420A2
:103620006665656C73202020206D75636820626577
:10363000747465722E20202020202020204C657478
:10364000277320676F206F6E20616E64206C6F613E
:1036500064736F6D6520706C6173746963212020E1
:103660002020202020005765276C6C207472792060
:10367000616761696E2120202020202020202020E9
:10368000202020202020202020202020202020203A
:10369000202020202020202020202020202020202A
:1036A000202020202020202020202020202020201A
:1036B000202020202020005765276C6C206B65653A
:1036C0007020676F696E6720202020616E64206C17
:1036D0006F616420736F6D65202020202020207092
:1036E0006C61737469632120466F722068656C7029
:1036F00020676F746F206D616B6572626F742E63EB
:103700006F6D2F68656C70005765276C6C20676F54
:1037100020746F20746865206D61696E6D656E75CB
:103720002E20496620796F75206E65656420202003
:1037300068656C7020676F20746F3A20202020200D
:10374000202020206D616B6572626F742E636F6D37
:103750002F68656C7020202000417765736F6D6560
:1037600021202020202020202020202020576527D5
:103770006C6C20676F20746F207468652053442040
:103780002063617264206D656E7520616E642079BE
:103790006F7520202063616E2073656C65637420F3
:1037A00061206D6F64656C21200049276D20676F73
:1037B000696E6720746F206D616B65202020612029
:1037C000736572696573206F66206C696E6573201E
:1037D000736F77652063616E2066696E64206D7912
:1037E0002020202020206E6F7A7A6C6520616C6921
:1037F000676E6D656E742E202020004C6F6F6B20FD
:10380000666F722074686520626573742020206D75
:10381000617463686564206C696E6520696E2065FB
:1038200061636861786973207365742E204C696EDA
:10383000657320617265206E756D626572656420C6
:10384000312D313320616E642E2E2E006C696E6531
:10385000206F6E6520697320657874726120202066
:103860006C6F6E672E2054686520592061786973EB
:10387000207365746973206C656674206F6E2074A4
:10388000686520706C617465616E64205820617891
:1038900069732069732072696768742E00477265C6
:1038A0006174212020492776652073617665642044
:1038B0002074686573652073657474696E6773201E
:1038C000616E64202049276C6C20757365207468D4
:1038D000656D20746F202020206D616B65206E69FE
:1038E0006365206D6F64656C732120202000536533
:1038F0006C6563742062657374206C696E65732EE9
:1039000000582041786973204C696E65002D2D3E6A
:103910000020202000592041786973204C696E6591
:1039200000446F6E6521004D792074656D7065727D
:1039300061747572652077617320206368616E67BA
:1039400065642065787465726E616C6C792E2052A6
:103950006573656C6563742066696C616D656E7412
:103960002020206D656E7520746F2074727920613F
:103970006761696E2E004D79206578747275646593
:10398000727320617265202020206E6F742068653C
:103990006174696E672075702E2020202020436896
:1039A00065636B206D79202020202020202020209E
:1039B0002020636F6E6E656374696F6E73212020C3
:1039C0002020202020200049276D2068656174692F
:1039D0006E67207570206D7920202065787472756F
:1039E00064657220736F2077652063616E20206CA0
:1039F0006F6164207468652066696C616D656E74C2
:103A00002E20204265206361726566756C2C2074DF
:103A100068652E2E2E20200049276D206865617470
:103A2000696E67207570206D79202020657874722A
:103A30007564657220736F2077652063616E202046
:103A40006C6F6164207468652066696C616D656E79
:103A5000742E20204265206361726566756C2C208F
:103A60007468652E2E2E202000506C6561736520D1
:103A700077616974207768696C65204920686561A1
:103A800074206D79206578747275646572212020C8
:103A90002020202020202020202020202020202026
:103AA0002020202020202020202020202020202016
:103AB000202020202020202020006E6F7A7A6C6544
:103AC0002077696C6C2067657420686F7421576873
:103AD000696C652049276D2068656174696E672C83
:103AE000202072656D6F7665207468652066696C4C
:103AF000616D656E7420747562652066726F6D20ED
:103B00007468652E2E2E20202020006E6F7A7A6C2D
:103B1000652077696C6C2067657420686F74215725
:103B200068696C652049276D2068656174696E67F6
:103B30002C202072656D6F7665207468652066693B
:103B40006C616D656E7420747562652066726F6D50
:103B5000207468652E2E2E20202020006578747237
:103B60007564657220626C6F636B2E2046656564B8
:103B700066696C616D656E742066726F6D20746825
:103B80006520202073706F6F6C207468726F75678A
:103B900068207468652020207475626520756E74D5
:103BA000696C2069742E2E2E2020202000706F70EA
:103BB00073206F757420696E2066726F6E742E208C
:103BC000205768656E207468652066696C616D6554
:103BD0006E7420697372656164792C2070726573EC
:103BE0007320274D2720746F20636F6E74696E7584
:103BF000652E202020202020202020202000486525
:103C00006174696E672050726F67726573733A20D2
:103C100020202020202020202020202020202020A4
:103C20002020202020202020202020202020202094
:103C30002020202020202020202020202020202084
:103C40002020202020202020202020202020004F65
:103C50004B2049276D207265616479212020202046
:103C60002020204669727374207765276C6C206C65
:103C70006F61642074686572696768742065787420
:103C800072756465722E2020202020507573682084
:103C900066696C616D656E7420696E2E2E2E200033
:103CA000477265617421204E6F77207765276C6CB1
:103CB000202020206C6F616420746865206C65662C
:103CC000742020202020202065787472756465722D
:103CD0002E205075736820202020202066696C619A
:103CE0006D656E74207468726F7567682E2E2E2055
:103CF000004F4B2049276D20726561647921202097
:103D00002020202020507573682074686520666923
:103D10006C616D656E74202020646F776E2074680E
:103D2000726F7567682E2E2E2020202020202020E4
:103D30002020202020202020202020202020202083
:103D4000200049276D207265616479212050756CCF
:103D50006C20746865206775696465207475626598
:103D6000206F666620616E64202070757368207411
:103D700068652066696C616D656E74202020696ECF
:103D800020756E74696C20796F75206665656C2E80
:103D90002E2E0049276D20726561647921204465CB
:103DA00074616368202020746865206775696465A4
:103DB00020747562652C206F70656E746865206C68
:103DC000657665722061726D20616E6420202070BE
:103DD000756C6C2066696C616D656E7420667265C9
:103DE000652E2000746865206D6F746F7220747585
:103DF0006720697420696E2E5075736820666F7233
:103E0000206120666577206D6F7265207365636F32
:103E10006E64732C207468656E20776169742E203F
:103E20002020202020202020202020202020202092
:103E300020202020005768656E2066696C616D65E2
:103E40006E74206973202020206265696E6720658A
:103E5000787472756465642066726F6D207468652D
:103E6000206E6F7A7A6C652C205072657373204DCA
:103E700020746F2073746F70206578747275646934
:103E80006E672E2020005768656E2066696C616D34
:103E9000656E74206973202020206265696E67203A
:103EA00065787472756465642066726F6D207468DD
:103EB00065206E6F7A7A6C652C20202020202020CF
:103EC0002020507265737320274D2720746F206562
:103ED0007869742E2020005768656E206D79206601
:103EE000696C616D656E742069732072656C6561C3
:103EF0007365642C202020202020202020202050AA
:103F00007265737320274D2720746F20657869745C
:103F10002E20202020202020202020202020202093
:103F2000202020202020200047726561742120205D
:103F300049276C6C2073746F7020202072756E6E30
:103F4000696E67206D792065787472756465722E6C
:103F50005072657373204D20746F20636F6E7469A7
:103F60006E75652E2020202020202020202020205B
:103F70002020202020202020004F4B212049276C8A
:103F80006C206B656570206D79202020206D6F742A
:103F90006F722072756E6E696E672E20596F752074
:103FA000206D6179206E65656420746F2070757373
:103FB00068202020206861726465722E2E2E2020D9
:103FC000202020202020202020005765276C6C20F6
:103FD0006B65657020676F696E672E2020204C65C9
:103FE00074732074727920746865206C656674201F
:103FF000202065787472756465722E205075736820
:1040000020202020202066696C616D656E7420641C
:104010006F776E2E2E2E20202020005765276C6C87
:10402000206B65657020676F696E672E20202049C0
:104030006620796F7527726520686176696E6720E2
:1040400020202074726F75626C652C206368656334
:104050006B206F757420206D616B6572626F742EBA
:10406000636F6D2F68656C70202020004D79206D86
:104070006F746F722074696D6564206F7574202091
:1040800061667465722035206D696E757465732E76
:10409000202020205072657373204D20746F20659E
:1040A0007869742E2020202020202020202020200D
:1040B00020202020202020202020202000486F7752
:1040C000276420697420676F3F20526561647920FE
:1040D0002000746F206D616B6520736F6D6574686F
:1040E000696E673F202000596573202020004E6FC5
:1040F0002020202000446F6573206D79206E6F7A38
:104100007A6C650068656967687420636865636BCD
:10411000206F75743F004D79206865696768742069
:10412000697320676F6F6421004C65742773207476
:10413000727920616761696E2E0044696420706C39
:1041400061737469632065787472756465200066B4
:10415000726F6D20746865206E6F7A7A6C653F00AF
:104160004C6F6164207269676874004C6F61640011
:10417000556E6C6F616420726967687400556E6C6F
:104180006F6164004C6F6164206C65667400556EED
:104190006C6F6164206C6566740020202020204ACA
:1041A0006F67206D6F646520202020202020002074
:1041B00020202020202020582B20202020202020BC
:1041C00020202000202020202020284261636B290D
:1041D000202020592D3E202000202020202020209B
:1041E00020582D20202020202020202020002020AA
:1041F000202020202020592B20202020202020207B
:1042000020200020203C2D5820284261636B29206B
:10421000205A2D3E20202000202020202020202059
:10422000592D202020202020202020200020202068
:1042300020202020205A2D20202020202020202037
:10424000200020203C2D5920284261636B2920202A
:104250002020202020200020202020202020205A44
:104260002B202020202020202020200047414D45C9
:10427000204F564552210048656174696E673A20A7
:10428000202020202020202020202000486561744C
:10429000696E673A00202D2D25006572726F7221BC
:1042A000002020202020202020202020202020202E
:1042B00020202020200045787472756465723A20B1
:1042C00020202D2D2D2F2D2D2D430052204578748B
:1042D00072756465723A202D2D2D2F2D2D2D4300E2
:1042E0004C2045787472756465723A202D2D2D2FFF
:1042F0002D2D2D4300506C6174666F726D3A202035
:10430000202D2D2D2F2D2D2D430020204E412020FE
:1043100020200077616974696E6720002F202020BB
:10432000430043202020200020507265686561749E
:104330002053657474696E6773202020005269678A
:10434000687420546F6F6C202020202020202020B3
:1043500020004C65667420546F6F6C202020202054
:1043600020202020202000506C6174666F726D2028
:1043700020202020202020002052657365742053C7
:10438000657474696E677320746F20200020446523
:104390006661756C742076616C7565733F00556E4F
:1043A00050617573652020202020202020202020AF
:1043B00020005061757365202020202020202020BF
:1043C00020202020200043616E63656C20427569C7
:1043D0006C64202020202020200057616974696EC1
:1043E0006720666F7220486F6D696E6720004368B2
:1043F000616E67652046696C616D656E7420202072
:104400002000536C6565702028436F6C64205061F8
:10441000757365292000526573756D652042756955
:104420006C6420202020202020004C454420436F35
:104430006C6F722020202020202020202000524558
:1044400044202020004F52414E4745200050494E05
:104450004B202000475245454E2000424C554520F8
:104460002000505552504C450057484954452000B3
:10447000435553544F4D004F464620202000466977
:104480006C616D656E742046616E202020202020B6
:104490002020004275696C642053746174697374E0
:1044A000696373202020004261636B20746F204D8C
:1044B0006F6E69746F7220202020004275696C64F1
:1044C0002046696E697368656421202020202020C1
:1044D00020202020202020202020202020202020DC
:1044E0002020204275696C642054696D652020206D
:1044F0002020206820206D004275696C642054697A
:104500006D653A20202020206820206D004C696EC7
:10451000653A20202020202020202020202020203C
:104520002000457374696D61746564204275696C1F
:10453000642054696D654C69666574696D652054C5
:104540006F74616C3A2020202068004C61737420E5
:104550004275696C643A20202020206820206D007C
:1045600043616E63656C2074686973206275696C61
:10457000643F005175697420746869732070726FAC
:10458000636573733F004275696C642066726F6D7A
:10459000205344202020202020005072656865614F
:1045A000742020202020202020202020200055744E
:1045B000696C6974696573202020202020202020E8
:1045C0002000496E666F20616E64205365747469C3
:1045D0006E67732020004D6F6E69746F72204D6F8F
:1045E000646520202020202020004368616E6765DC
:1045F0002046696C616D656E7420202020004C653A
:1046000076656C204275696C6420506C617465201D
:1046100020004A6F67204D6F6465202020202020F5
:10462000202020202000486F6D6520417865732090
:104630002020202020202020200052756E2053743E
:104640006172747570205363726970742000456ED6
:1046500061626C65205374657070657273202020F0
:10466000200044697361626C6520537465707065E5
:1046700072732020200053746F7020426C696E6B3F
:10468000696E6721202020202000426C696E6B201B
:104690004C4544732020202020202020200043610E
:1046A0006C696272617465204E6F7A7A6C657320F2
:1046B000200065786974206D656E752020202020AB
:1046C000202020202000426F74205374617469738D
:1046D0007469637320202020200047656E65726135
:1046E0006C2053657474696E6773202020005072CB
:1046F00065686561742053657474696E6773202002
:10470000200056657273696F6E204E756D6265721A
:10471000202020202000526573746F72652044654C
:104720006661756C747320202000536F756E642071
:10473000202020202020202020202020200048652C
:104740006174656420506C61746500546F6F6C20F7
:10475000436F756E742020202020202020200053DD
:10476000494E474C45004455414C20200048656166
:1047700074204C454473202020202020202020201D
:10478000004865617420486F6C6420202020202040
:104790006D2020200048656C7020546578742020BE
:1047A000202020202020202000416363656C65725A
:1047B00061746520202020202020202000534420E8
:1047C000436C6F636B20202000384D487A20200016
:1047D000344D487A202000324D487A202000314D57
:1047E000487A2020003530306B487A004E6F2053D5
:1047F00044206361726420666F756E6400534420C8
:10480000636172642072656164206572726F720008
:10481000492063616E277420726561642074686941
:10482000732020205344206361726420666F726D90
:104830006174212020202020547279207265666FD7
:10484000726D617474696E67202020207468652021
:104850006361726420746F2046415431362E20000B
:10486000492063616E27742072656164205344207F
:104870000920202063617264732077697468207353
:10488000746F7261676520206C6172676572207455
:1048900068616E203247422E2020202020202020D8
:1048A0002020202020202020202020202020002028
:1048B0005344206361726420726561642065727282
:1048C0006F72002049276D20616C726561647920E8
:1048D0006275696C64696E67005761726E696E67B4
:1048E0003A4275696C6420737065656473666173C0
:1048F000746572207468616E2035306D6D2F732081
:1049000020726571756972652078336720666F72F1
:104910006D61742020666F72206265737420726509
:1049200073756C74732E20202000010094033600F0
:1049300009016B00D800A000BD00D500AB000A0142
:104940009D003F01840074017C00A9017400DE0118
:104950006D0013026600480260007D025900B20239
:104960005200E7024B001C03440051033A00860347
:104970003000BB032200F0030200D0FEC0FF18FF8E
:10498000D0FF63FFE0FFB1FFF0FF00000000510027
:104990001000A4002000F800300040014000A201F7
:1049A0005000F70160004B0270009F028000F2028D
:1049B00090004503A0009703B000E803C0003A044C
:1049C000D0008C04E000DF04F00032050001860511
:1049D0001001DB0520012F063001DA0650013007F7
:1049E000600186077001DC078001680890012039AA
:1049F000C9FFE03CE7FFF83F0000000000000800AE
:104A00000000200319004006320060094B00000A34
:104A10005000800C6400001080003A34613401388A
:104A2000D44157429F4C474ED14E2852855314676C
:104A30005D786C7B7886CF879D889E894E8B7E8B38
:104A40002B8DE39892999A9D2C9E159FD29FFBA047
:104A500023A66FA61DAAF0ADECCCAECE35D066D1A4
:104A60001FD2FBD211241FBECFEFD1E2DEBFCDBFDC
:104A700015E0A0E0B2E0ECECF2EB01E00BBF02C00D
:104A800007900D92A438B107D9F71CE1A4E8B5E06E
:104A900001C01D92A63BB107E1F71AE4C4E6DAE4CF
:104AA00000E006C022970109FE010BBF0E94D2D888
:104AB000CA31D10780E00807A9F70E9424420C946C
:104AC00064D90C940000FA01DC0102C005900D923B
:104AD00021503040D8F70895F8948091C8059091FE
:104AE000C9052091C6053091C705281B390B78945C
:104AF000C90108958093BF05089581E08093BD05A5
:104B000008958091BF0508958091BE050895209174
:104B1000C8053091C90581E0232B09F080E0089594
:104B20001092C9051092C8051092CB051092CA05C3
:104B30001092CE051092CF051092C1051092C205B9
:104B40001092C3051092C4051092C0051092BF05C3
:104B50001092BE051092B8051092B9051092BA05D0
:104B60001092BB051092A3051092B7051092B605DE
:104B70001092B505089581E02091B5053091B605F4
:104B80002630310509F080E008956091C1057091EB
:104B9000C2058091C3059091C40508951092C10586
:104BA0001092C2051092C3051092C40508954F9249
:104BB0005F926F927F928F929F92AF92BF92CF92AD
:104BC000DF92EF92FF920F931F93CF93DF93CDB7B6
:104BD000DEB7C256D1090FB6F894DEBF0FBECDBF07
:104BE000CE018D5B9F4F0E94AC7D84E1FE01ED5BA9
:104BF000FF4FA7E8B5E001900D928A95E1F745E0F7
:104C000063EC79E1CE01CD960E94D3CFCE01CD9653
:104C10000E9415D08093860564E070E087E895E0F7
:104C20000E94A74EDC016D917D918D919C910E9417
:104C30007FD52B013C0184E00E94E87A9B01AC0106
:104C400063E070E087E895E0A0962FAFA097A1966B
:104C50003FAFA197A2964FAFA297A3965FAFA3973E
:104C60000E94A74EFC0180809180A280B38083E0E7
:104C70000E94E87A6B966CAF7DAF8EAF9FAF6B975B
:104C800062E070E087E895E00E94A74EDC01CD90DD
:104C9000DD90ED90FC9061E070E087E895E00E9487
:104CA000A74EDC018D919D910D90BC91A02D6F962A
:104CB0008CAF9DAFAEAFBFAF6F9760E070E087E89D
:104CC00095E00E94A74E8C016B966CAD7DAD8EADCC
:104CD0009FAD6B970E9451D5860E971EA81EB91ED8
:104CE000D8018D919D910D90BC91A02D6B968CAFAC
:104CF0009DAFAEAFBFAF6B97A0962FADA097A1961B
:104D00003FADA197A2964FADA297A3965FADA39793
:104D1000C301B2010E942FD40E944CD59F938F9360
:104D20007F936F936F960CAD1DAD2EAD3FAD6F971A
:104D30006B964CAD5DAD6EAD7FAD6B97CE01899638
:104D40000E946B4E48E052E060E070E0CE01899630
:104D50000E94427E80E099E00E9405A490939E0507
:104D600080939D058FE999E00E9405A49093A0058A
:104D700080939F0580E59BE00E9405A490939C058D
:104D800080939B050F900F900F900F908091BC0522
:104D9000882391F060E070E080E099E00E9435A304
:104DA00060E070E08FE999E00E9435A360E070E078
:104DB00080E59BE00E9435A384E1FE01B996DE0107
:104DC000559601900D928A95E1F762E070E0CE0170
:104DD00045960E94A74E8C0182E00E94E87A0E94CC
:104DE0004CD59B01AC01A6E9B0E00E94F9D6F801D0
:104DF000608371838283938384E1FE017596DE0173
:104E0000119601900D928A95E1F760E070E0CE0175
:104E100001960E94A74E8C0180E00E94E87A20E073
:104E200030E04DED52EC0E9483D60E944CD5D80163
:104E30006D937D938D939C93139761E070E0CE0109
:104E400001960E94A74E8C0181E00E94E87A20E042
:104E500030E044E952EC0E9483D60E944CD5F80120
:104E600060837183828393834CE850E060E070E05C
:104E7000CE0145960E94427E42E850E060E070E03C
:104E8000CE0101960E94427E60E08DE998E00E948A
:104E9000454BCE59DF4F0FB6F894DEBF0FBECDBFE6
:104EA000DF91CF911F910F91FF90EF90DF90CF9006
:104EB000BF90AF909F908F907F906F905F904F903A
:104EC00008950F931F93CF93DF93CDB7DEB7649709
:104ED0000FB6F894DEBF0FBECDBFCE0101960E9483
:104EE000AC7D63E070E0CE0101960E94A74E8C017C
:104EF00063E070E087E895E00E94A74EFC014081E6
:104F0000518162817381F80140835183628373838D
:104F100064E070E0CE0101960E94A74E8C0164E02F
:104F200070E087E895E00E94A74EFC014081518126
:104F300062817381F8014083518362837383CE0160
:104F400001960E942F7C62E070E0CE0101960E94E3
:104F5000A74E8C0162E070E087E895E00E94A74EC2
:104F6000FC014081518162817381F801408351834A
:104F7000628373834CE850E060E070E0CE010196FC
:104F80000E94427E42E850E060E070E087E895E0F1
:104F90000E94427E609186058DE998E00E94454B13
:104FA00064960FB6F894DEBF0FBECDBFDF91CF91F0
:104FB0001F910F91089560919D0570919E0580E06D
:104FC00099E00E9435A360919F057091A0058FE93B
:104FD00099E00E9435A360919B0570919C0580E546
:104FE0009BE00E9435A380E59BE00E9419A48823E2
:104FF00029F180E59BE00E9433A481111FC017C0F6
:1050000061E080E099E00E9465A481E08093C005A2
:105010008FE999E00E9433A4811110C061E08FE90B
:1050200099E00E9465A481E08093C005089580E026
:1050300099E00E9433A48111EBCFE2CF0895CF9382
:10504000DF93EB0170930102609300029091BE0523
:10505000981709F44BC0882329F1209781F481E047
:105060008093BC056CE171E085E89AE00E946DA731
:1050700081E090E09093A2058093A1050FC061307C
:10508000710561F41092BC0562E571E085E89AE073
:105090000E946DA7D093A205C093A10581E08093E3
:1050A000BE0524C08091A1059091A2058130910593
:1050B00029F41092A2051092A10516C08230910524
:1050C00029F40E94DB2784E090E006C0039749F4AE
:1050D0000E94DB2785E090E09093A2058093A105D4
:1050E00005C06230710511F41092BE05DF91CF91B9
:1050F0000895CF93FC01C62F8281938160817181D5
:105100008617970798F44281538184819581840F93
:10511000951F0E9420D7A681B781A80FB91FCC93F5
:105120008281938101969383828302C081E080878C
:10513000CF910895682F86EC95E00C947928CF9351
:10514000DF93FC0182819381892B21F481E08187A7
:1051500080E019C08481958120813181B9010E944C
:1051600020D7C681D781C80FD91F84819581019628
:10517000B9010E9420D7958384838281938101970E
:10518000938382838881DF91CF9108951F93CF937A
:10519000DF9300D0CDB7DEB786EC95E00E949F2864
:1051A000682F86EC95E06A830E949F28782F86EC12
:1051B00095E079830E949F28182F86EC95E00E9445
:1051C0009F28982F6A817981812F0F900F90DF910E
:1051D000CF911F910895CF9386EC95E00E949F2870
:1051E000C82F86EC95E00E949F28982F8C2FCF9196
:1051F000089586EC95E00C949F28CF93DF930E944E
:10520000F928D82F0E94F928C82F0E94F928CA30FF
:1052100009F4E8C098F4C63009F4E1C048F4C43099
:1052200009F4E0C008F0DEC0C33009F0DEC01AC0E7
:10523000C83009F4D7C008F0D5C0D1C0CE3009F4C9
:10524000D1C030F4CC3009F46CC008F078C0CAC0CA
:10525000C73109F45FC0CF3109F47AC0CF3009F00B
:10526000C4C0C0C0809185058823A1F080E099E08A
:105270000E943BA28FE999E00E943BA280918405A5
:10528000811104C080E59BE00E943BA2109284053E
:10529000109285050E94EB28BC01D13019F487E9F2
:1052A00099E002C088EF98E008960E9435A380E557
:1052B0009BE00E9419A4882309F4A2C080E59BE02A
:1052C0000E9433A481119CC0D13019F487E999E080
:1052D00002C088EF98E008960E9433A4811190C024
:1052E00086C087E999E061E003C087E999E060E062
:1052F00008960E9465A440E061E070E08DE998E0C6
:105300000E944745D13009F08EC00E94BC35811102
:105310007DC089C09091BF0581E089270E94293C0A
:1053200082C00E94F928682F6170D13019F487E992
:1053300099E002C088EF98E00E942E8974C00E9414
:10534000F928682F61708DE998E00E94454B6BC089
:1053500061E08DE998E00E94404B809185058823AB
:1053600019F081E0809384050E94EB28BC0180E560
:105370009BE00E9435A380E59BE00E9433A4C1E03E
:10538000C827C093C0056C2F80E099E00E9465A4F7
:105390006C2F8FE999E00E9465A440E061E070E025
:1053A0008DE998E00E9447450E949F3681113BC0DD
:1053B0000E94B73B059739F040E068ED71E08DE958
:1053C00098E00E94294560E070E080E59BE00E9443
:1053D00035A360E08DE998E00E94404B24C00E9414
:1053E000C62821C00E94F9281EC080E01DC081E0AF
:1053F0008093C005D13009F474CF88EF98E073CF63
:10540000D13009F472CF88EF98E071CF40E068E8BE
:1054100071E08DE998E00E94294560E070E08FE935
:1054200099E00E9435A381E0DF91CF9108952F92FA
:105430003F924F925F926F927F928F929F92AF9224
:10544000BF92CF92DF92EF92FF920F931F93CF9371
:10545000DF93CDB7DEB7E7970FB6F894DEBF0FBE88
:10546000CDBF0E945350882309F492C08091C80593
:105470009091C9052091C6053091C70528173907B5
:1054800011F40C9447330E94C95081110C944D3390
:105490000C944733C090B805D090B905E090BA0598
:1054A000F090BB050E940250C616D706E806F90622
:1054B00010F00C9474338091A30581110C94743313
:1054C0000C94693385E89AE00E94B4A640E069E252
:1054D00072E08DE998E00E94294581E08093A30560
:1054E0000E947A831092C9051092C8051092CB05CC
:1054F0001092CA051092CE051092CF0560E070E0C0
:1055000080E099E00E9435A360E070E08FE999E0C7
:105510000E9435A360E070E080E59BE00E9435A327
:10552000CE0101960E94187D62E070E0CE010196E6
:105530000E94A74E8C0182E00E94E87A20E030E0D1
:1055400046E153E40E9483D60E944CD5F801608363
:105550007183828393831092BF0546E950E060E037
:1055600070E0CE0101960E94427E0E94DB501092B4
:10557000B7050EC08091C8059091C905892B41F4EB
:105580008091B5059091B605892B11F40C947B336D
:105590000E942B87882311F18091C8059091C9053D
:1055A0002091C6053091C7052817390711F40C94CE
:1055B0007F330E94348781110C9486330C947F339F
:1055C0008091C8059091C905892B41F48091B5055A
:1055D0009091B605892B11F40C948F338091C005FE
:1055E000882391F080E59BE00E94E1A3882361F08D
:1055F00060E080E099E00E9465A460E08FE999E0B6
:105600000E9465A41092C0058091BF0581110C9481
:1056100021348091BD0581110C9421348091B50510
:105620009091B605039789F40E948B7B811101C08C
:1056300008C086EA95E00E9495D1882331F00E9447
:105640007A831092B6051092B5058091B5059091B8
:10565000B605019741F40E948B7B811104C0109222
:10566000B6051092B5058091B5059091B6050297E3
:1056700051F486EA95E00E9495D1882321F010929A
:10568000B6051092B5058091B5059091B6050497C1
:1056900009F049C086EA95E00E9495D1882349F037
:1056A00040E06AE772E08DE998E00E9429450C9499
:1056B000A0338091C505813019F487E999E002C0D3
:1056C00088EF98E008960E94E1A3882311F40C94D7
:1056D00093338091C505813019F487E999E002C0C0
:1056E00088EF98E0FC01E258FF4F808181110C9413
:1056F00093330C949D3388EF98E008960E9419A488
:10570000811111C08091C505813019F487E999E0B4
:1057100002C088EF98E0FC01E258FF4F80818823A7
:1057200011F40C94A0338091B5059091B6050597BE
:10573000F9F486EA95E00E9495D1882341F040E093
:105740006FEA72E08DE998E00E9429450DC080E57E
:105750009BE00E9419A4811101C006C080E59BE076
:105760000E94E1A3882321F01092B6051092B5059E
:105770008091B5059091B605069709F03FC086EA7D
:1057800095E00E9495D18823B1F08091A40581FF16
:1057900006C060E08DE998E00E94754B2FC0109222
:1057A000B6051092B50540E060E170E08DE998E043
:1057B0000E94474523C085E89AE00E9415AA8823E5
:1057C000E9F08091A40582FF04C085E89AE00E9478
:1057D000FFA740E050E060E070E08DE998E00E94B3
:1057E0000F4840E060E170E08DE998E00E94474595
:1057F0000E94F6891092B6051092B5058091B50504
:105800009091B605892B09F027C78091BE058823A2
:1058100009F4A5C08091A1059091A205019709F016
:1058200095C70E94E265811198C790C764EE72E047
:1058300004C0019731F462E373E085E89AE00E94C6
:105840006DA70E94D72582E090E059C00E94E265D2
:10585000811193C78AC764E183E00E94918264E169
:1058600084E00E949182EDC70E94E2658111A2C787
:105870008091A1059091A2058530910509F095C709
:1058800099C76FE783E00E9491826FE784E00E94EE
:10589000918264E673E085E89AE00E946DA7109219
:1058A000C50585E090E09093B6058093B50540E08E
:1058B00052ED69E47BE686EA95E00E9471D186E0CC
:1058C00090E09093A2058093A10524E140E063E07D
:1058D0008DE998E00E947045B4C71092C50584E038
:1058E00090E09093B6058093B50540E052ED69E4F1
:1058F0007BE686EA95E00E9471D187E090E0909384
:10590000A2058093A1059DC787309105A1F481E090
:105910008093C50584E090E09093B6058093B5052B
:1059200040E052ED69E47BE686EA95E00E9471D1A1
:1059300088E090E0E4CF8830910549F48DE998E063
:105940000E9486450E94612789E090E0D8CF0997A0
:1059500009F077C70E94E26581113CC772C7809148
:10596000C8059091C905892B09F476C68DE998E0A0
:105970000E94A7478091CA059091CB056091C6050A
:105980007091C7050E9420D7E091CC05F091CD051C
:10599000E80FF91F10811B3809F42FC71E3809F4CE
:1059A00034C71B3909F421C7193809F442C716391D
:1059B00009F432C3163809F434C71C3841F4809115
:1059C000C8059091C905459708F446C6CEC11C3953
:1059D00009F422C3103909F41FC3133809F41CC396
:1059E000143809F419C3183809F416C30E94E26583
:1059F000811113C726C78DE998E00E94A7470E942E
:105A0000F92881E090E09093B6058093B5050E9457
:105A1000C62868A779A78AA79BA70E94C6286CA753
:105A20007DA78EA79FA70E94C6286B017C010E94BC
:105A3000C6284B015C010E94C628162F072F382E5E
:105A4000292E0E94C6282B013C018091C10590910E
:105A5000C205A091C305B091C4050196A11DB11D59
:105A60008093C1059093C205A093C305B093C4056C
:105A70002F923F920F931F930CA51DA52EA53FA516
:105A800048A559A56AA57BA5CE0101960E946B4E3B
:105A9000B301A201CE0101960E94427E58C08DE959
:105AA00098E00E94A7470E94F92881E090E0909337
:105AB000B6058093B5050E94C62868A779A78AA76E
:105AC0009BA70E94C6286CA77DA78EA79FA70E94B0
:105AD000C6286B017C010E94C6284B015C010E9414
